{
  "_format": "hh-sol-artifact-1",
  "contractName": "MyEpicNFT",
  "sourceName": "contracts/MyEpicNFT.sol",
  "abi": [
    {
      "inputs": [],
      "stateMutability": "nonpayable",
      "type": "constructor"
    },
    {
      "anonymous": false,
      "inputs": [
        {
          "indexed": true,
          "internalType": "address",
          "name": "owner",
          "type": "address"
        },
        {
          "indexed": true,
          "internalType": "address",
          "name": "approved",
          "type": "address"
        },
        {
          "indexed": true,
          "internalType": "uint256",
          "name": "tokenId",
          "type": "uint256"
        }
      ],
      "name": "Approval",
      "type": "event"
    },
    {
      "anonymous": false,
      "inputs": [
        {
          "indexed": true,
          "internalType": "address",
          "name": "owner",
          "type": "address"
        },
        {
          "indexed": true,
          "internalType": "address",
          "name": "operator",
          "type": "address"
        },
        {
          "indexed": false,
          "internalType": "bool",
          "name": "approved",
          "type": "bool"
        }
      ],
      "name": "ApprovalForAll",
      "type": "event"
    },
    {
      "anonymous": false,
      "inputs": [
        {
          "indexed": false,
          "internalType": "address",
          "name": "sender",
          "type": "address"
        },
        {
          "indexed": false,
          "internalType": "uint256",
          "name": "tokenId",
          "type": "uint256"
        }
      ],
      "name": "NewEpicNFTMinted",
      "type": "event"
    },
    {
      "anonymous": false,
      "inputs": [
        {
          "indexed": true,
          "internalType": "address",
          "name": "from",
          "type": "address"
        },
        {
          "indexed": true,
          "internalType": "address",
          "name": "to",
          "type": "address"
        },
        {
          "indexed": true,
          "internalType": "uint256",
          "name": "tokenId",
          "type": "uint256"
        }
      ],
      "name": "Transfer",
      "type": "event"
    },
    {
      "inputs": [
        {
          "internalType": "address",
          "name": "to",
          "type": "address"
        },
        {
          "internalType": "uint256",
          "name": "tokenId",
          "type": "uint256"
        }
      ],
      "name": "approve",
      "outputs": [],
      "stateMutability": "nonpayable",
      "type": "function"
    },
    {
      "inputs": [
        {
          "internalType": "address",
          "name": "owner",
          "type": "address"
        }
      ],
      "name": "balanceOf",
      "outputs": [
        {
          "internalType": "uint256",
          "name": "",
          "type": "uint256"
        }
      ],
      "stateMutability": "view",
      "type": "function"
    },
    {
      "inputs": [
        {
          "internalType": "uint256",
          "name": "tokenId",
          "type": "uint256"
        }
      ],
      "name": "getApproved",
      "outputs": [
        {
          "internalType": "address",
          "name": "",
          "type": "address"
        }
      ],
      "stateMutability": "view",
      "type": "function"
    },
    {
      "inputs": [
        {
          "internalType": "address",
          "name": "owner",
          "type": "address"
        },
        {
          "internalType": "address",
          "name": "operator",
          "type": "address"
        }
      ],
      "name": "isApprovedForAll",
      "outputs": [
        {
          "internalType": "bool",
          "name": "",
          "type": "bool"
        }
      ],
      "stateMutability": "view",
      "type": "function"
    },
    {
      "inputs": [],
      "name": "makeAnEpicNFT",
      "outputs": [],
      "stateMutability": "nonpayable",
      "type": "function"
    },
    {
      "inputs": [],
      "name": "name",
      "outputs": [
        {
          "internalType": "string",
          "name": "",
          "type": "string"
        }
      ],
      "stateMutability": "view",
      "type": "function"
    },
    {
      "inputs": [
        {
          "internalType": "uint256",
          "name": "tokenId",
          "type": "uint256"
        }
      ],
      "name": "ownerOf",
      "outputs": [
        {
          "internalType": "address",
          "name": "",
          "type": "address"
        }
      ],
      "stateMutability": "view",
      "type": "function"
    },
    {
      "inputs": [
        {
          "internalType": "uint256",
          "name": "tokenId",
          "type": "uint256"
        }
      ],
      "name": "pickRandomValdax",
      "outputs": [
        {
          "internalType": "string",
          "name": "",
          "type": "string"
        }
      ],
      "stateMutability": "view",
      "type": "function"
    },
    {
      "inputs": [
        {
          "internalType": "address",
          "name": "from",
          "type": "address"
        },
        {
          "internalType": "address",
          "name": "to",
          "type": "address"
        },
        {
          "internalType": "uint256",
          "name": "tokenId",
          "type": "uint256"
        }
      ],
      "name": "safeTransferFrom",
      "outputs": [],
      "stateMutability": "nonpayable",
      "type": "function"
    },
    {
      "inputs": [
        {
          "internalType": "address",
          "name": "from",
          "type": "address"
        },
        {
          "internalType": "address",
          "name": "to",
          "type": "address"
        },
        {
          "internalType": "uint256",
          "name": "tokenId",
          "type": "uint256"
        },
        {
          "internalType": "bytes",
          "name": "_data",
          "type": "bytes"
        }
      ],
      "name": "safeTransferFrom",
      "outputs": [],
      "stateMutability": "nonpayable",
      "type": "function"
    },
    {
      "inputs": [
        {
          "internalType": "address",
          "name": "operator",
          "type": "address"
        },
        {
          "internalType": "bool",
          "name": "approved",
          "type": "bool"
        }
      ],
      "name": "setApprovalForAll",
      "outputs": [],
      "stateMutability": "nonpayable",
      "type": "function"
    },
    {
      "inputs": [
        {
          "internalType": "bytes4",
          "name": "interfaceId",
          "type": "bytes4"
        }
      ],
      "name": "supportsInterface",
      "outputs": [
        {
          "internalType": "bool",
          "name": "",
          "type": "bool"
        }
      ],
      "stateMutability": "view",
      "type": "function"
    },
    {
      "inputs": [],
      "name": "symbol",
      "outputs": [
        {
          "internalType": "string",
          "name": "",
          "type": "string"
        }
      ],
      "stateMutability": "view",
      "type": "function"
    },
    {
      "inputs": [
        {
          "internalType": "uint256",
          "name": "tokenId",
          "type": "uint256"
        }
      ],
      "name": "tokenURI",
      "outputs": [
        {
          "internalType": "string",
          "name": "",
          "type": "string"
        }
      ],
      "stateMutability": "view",
      "type": "function"
    },
    {
      "inputs": [
        {
          "internalType": "address",
          "name": "from",
          "type": "address"
        },
        {
          "internalType": "address",
          "name": "to",
          "type": "address"
        },
        {
          "internalType": "uint256",
          "name": "tokenId",
          "type": "uint256"
        }
      ],
      "name": "transferFrom",
      "outputs": [],
      "stateMutability": "nonpayable",
      "type": "function"
    }
  ],
  "bytecode": "0x608060405260405180610160016040528061012f815260200162003bc861012f9139600890805190602001906200003892919062000382565b506040518060c001604052806040518060400160405280600a81526020017f56616c646170617061780000000000000000000000000000000000000000000081525081526020016040518060400160405280600b81526020017f56616c6c616372696d617800000000000000000000000000000000000000000081525081526020016040518060400160405280600b81526020017f56616c6e696262616c617800000000000000000000000000000000000000000081525081526020016040518060400160405280600c81526020017f56616c6d75726164696e6178000000000000000000000000000000000000000081525081526020016040518060400160405280600b81526020017f56616c6775696c756d617800000000000000000000000000000000000000000081525081526020016040518060400160405280600c81526020017f56616c736b7977616c6b617800000000000000000000000000000000000000008152508152506009906006620001b692919062000413565b50348015620001c457600080fd5b506040518060400160405280600981526020017f5371756172654e465400000000000000000000000000000000000000000000008152506040518060400160405280600681526020017f535155415245000000000000000000000000000000000000000000000000000081525081600090805190602001906200024992919062000382565b5080600190805190602001906200026292919062000382565b505050620002b06040518060400160405280601e81526020017f54686973206973206d79204e465420636f6e74726163742e20576f6168210000815250620002b660201b62000f321760201c565b62000634565b6200035681604051602401620002cd919062000548565b6040516020818303038152906040527f41304fac000000000000000000000000000000000000000000000000000000007bffffffffffffffffffffffffffffffffffffffffffffffffffffffff19166020820180517bffffffffffffffffffffffffffffffffffffffffffffffffffffffff83818316178352505050506200035960201b60201c565b50565b60008151905060006a636f6e736f6c652e6c6f679050602083016000808483855afa5050505050565b8280546200039090620005be565b90600052602060002090601f016020900481019282620003b4576000855562000400565b82601f10620003cf57805160ff191683800117855562000400565b8280016001018555821562000400579182015b82811115620003ff578251825591602001919060010190620003e2565b5b5090506200040f91906200047a565b5090565b82805482825590600052602060002090810192821562000467579160200282015b82811115620004665782518290805190602001906200045592919062000382565b509160200191906001019062000434565b5b50905062000476919062000499565b5090565b5b80821115620004955760008160009055506001016200047b565b5090565b5b80821115620004bd5760008181620004b39190620004c1565b506001016200049a565b5090565b508054620004cf90620005be565b6000825580601f10620004e3575062000504565b601f0160209004906000526020600020908101906200050391906200047a565b5b50565b600062000514826200056c565b62000520818562000577565b93506200053281856020860162000588565b6200053d8162000623565b840191505092915050565b6000602082019050818103600083015262000564818462000507565b905092915050565b600081519050919050565b600082825260208201905092915050565b60005b83811015620005a85780820151818401526020810190506200058b565b83811115620005b8576000848401525b50505050565b60006002820490506001821680620005d757607f821691505b60208210811415620005ee57620005ed620005f4565b5b50919050565b7f4e487b7100000000000000000000000000000000000000000000000000000000600052602260045260246000fd5b6000601f19601f8301169050919050565b61358480620006446000396000f3fe608060405234801561001057600080fd5b50600436106100f55760003560e01c806370a0823111610097578063c87b56dd11610066578063c87b56dd14610282578063de9d132f146102b2578063e6a7014a146102bc578063e985e9c5146102ec576100f5565b806370a08231146101fc57806395d89b411461022c578063a22cb4651461024a578063b88d4fde14610266576100f5565b8063095ea7b3116100d3578063095ea7b31461017857806323b872dd1461019457806342842e0e146101b05780636352211e146101cc576100f5565b806301ffc9a7146100fa57806306fdde031461012a578063081812fc14610148575b600080fd5b610114600480360381019061010f91906121c5565b61031c565b6040516101219190612814565b60405180910390f35b6101326103fe565b60405161013f919061282f565b60405180910390f35b610162600480360381019061015d9190612217565b610490565b60405161016f9190612784565b60405180910390f35b610192600480360381019061018d9190612189565b610515565b005b6101ae60048036038101906101a99190612083565b61062d565b005b6101ca60048036038101906101c59190612083565b61068d565b005b6101e660048036038101906101e19190612217565b6106ad565b6040516101f39190612784565b60405180910390f35b6102166004803603810190610211919061201e565b61075f565b6040516102239190612a8f565b60405180910390f35b610234610817565b604051610241919061282f565b60405180910390f35b610264600480360381019061025f919061214d565b6108a9565b005b610280600480360381019061027b91906120d2565b610a2a565b005b61029c60048036038101906102979190612217565b610a8c565b6040516102a9919061282f565b60405180910390f35b6102ba610bde565b005b6102d660048036038101906102d19190612217565b610d80565b6040516102e3919061282f565b60405180910390f35b61030660048036038101906103019190612047565b610e9e565b6040516103139190612814565b60405180910390f35b60007f80ac58cd000000000000000000000000000000000000000000000000000000007bffffffffffffffffffffffffffffffffffffffffffffffffffffffff1916827bffffffffffffffffffffffffffffffffffffffffffffffffffffffff191614806103e757507f5b5e139f000000000000000000000000000000000000000000000000000000007bffffffffffffffffffffffffffffffffffffffffffffffffffffffff1916827bffffffffffffffffffffffffffffffffffffffffffffffffffffffff1916145b806103f757506103f682610fcb565b5b9050919050565b60606000805461040d90612d23565b80601f016020809104026020016040519081016040528092919081815260200182805461043990612d23565b80156104865780601f1061045b57610100808354040283529160200191610486565b820191906000526020600020905b81548152906001019060200180831161046957829003601f168201915b5050505050905090565b600061049b82611035565b6104da576040517f08c379a00000000000000000000000000000000000000000000000000000000081526004016104d1906129ef565b60405180910390fd5b6004600083815260200190815260200160002060009054906101000a900473ffffffffffffffffffffffffffffffffffffffff169050919050565b6000610520826106ad565b90508073ffffffffffffffffffffffffffffffffffffffff168373ffffffffffffffffffffffffffffffffffffffff161415610591576040517f08c379a000000000000000000000000000000000000000000000000000000000815260040161058890612a4f565b60405180910390fd5b8073ffffffffffffffffffffffffffffffffffffffff166105b06110a1565b73ffffffffffffffffffffffffffffffffffffffff1614806105df57506105de816105d96110a1565b610e9e565b5b61061e576040517f08c379a00000000000000000000000000000000000000000000000000000000081526004016106159061292f565b60405180910390fd5b61062883836110a9565b505050565b61063e6106386110a1565b82611162565b61067d576040517f08c379a000000000000000000000000000000000000000000000000000000000815260040161067490612a6f565b60405180910390fd5b610688838383611240565b505050565b6106a883838360405180602001604052806000815250610a2a565b505050565b6000806002600084815260200190815260200160002060009054906101000a900473ffffffffffffffffffffffffffffffffffffffff169050600073ffffffffffffffffffffffffffffffffffffffff168173ffffffffffffffffffffffffffffffffffffffff161415610756576040517f08c379a000000000000000000000000000000000000000000000000000000000815260040161074d9061296f565b60405180910390fd5b80915050919050565b60008073ffffffffffffffffffffffffffffffffffffffff168273ffffffffffffffffffffffffffffffffffffffff1614156107d0576040517f08c379a00000000000000000000000000000000000000000000000000000000081526004016107c79061294f565b60405180910390fd5b600360008373ffffffffffffffffffffffffffffffffffffffff1673ffffffffffffffffffffffffffffffffffffffff168152602001908152602001600020549050919050565b60606001805461082690612d23565b80601f016020809104026020016040519081016040528092919081815260200182805461085290612d23565b801561089f5780601f106108745761010080835404028352916020019161089f565b820191906000526020600020905b81548152906001019060200180831161088257829003601f168201915b5050505050905090565b6108b16110a1565b73ffffffffffffffffffffffffffffffffffffffff168273ffffffffffffffffffffffffffffffffffffffff16141561091f576040517f08c379a0000000000000000000000000000000000000000000000000000000008152600401610916906128ef565b60405180910390fd5b806005600061092c6110a1565b73ffffffffffffffffffffffffffffffffffffffff1673ffffffffffffffffffffffffffffffffffffffff16815260200190815260200160002060008473ffffffffffffffffffffffffffffffffffffffff1673ffffffffffffffffffffffffffffffffffffffff16815260200190815260200160002060006101000a81548160ff0219169083151502179055508173ffffffffffffffffffffffffffffffffffffffff166109d96110a1565b73ffffffffffffffffffffffffffffffffffffffff167f17307eab39ab6107e8899845ad3d59bd9653f200f220920489ca2b5937696c3183604051610a1e9190612814565b60405180910390a35050565b610a3b610a356110a1565b83611162565b610a7a576040517f08c379a0000000000000000000000000000000000000000000000000000000008152600401610a7190612a6f565b60405180910390fd5b610a868484848461149c565b50505050565b6060610a9782611035565b610ad6576040517f08c379a0000000000000000000000000000000000000000000000000000000008152600401610acd906129cf565b60405180910390fd5b6000600660008481526020019081526020016000208054610af690612d23565b80601f0160208091040260200160405190810160405280929190818152602001828054610b2290612d23565b8015610b6f5780601f10610b4457610100808354040283529160200191610b6f565b820191906000526020600020905b815481529060010190602001808311610b5257829003601f168201915b505050505090506000610b806114f8565b9050600081511415610b96578192505050610bd9565b600082511115610bcb578082604051602001610bb39291906126a8565b60405160208183030381529060405292505050610bd9565b610bd48461150f565b925050505b919050565b6000610bea60076115b6565b90506000610bf782610d80565b90506000600882604051602001610c0f9291906126cc565b60405160208183030381529060405290506000610c5483610c2f846115c4565b604051602001610c4092919061271d565b6040516020818303038152906040526115c4565b9050600081604051602001610c699190612762565b6040516020818303038152906040529050610cb86040518060400160405280601581526020017f0a2d2d2d2d2d2d2d2d2d2d2d2d2d2d2d2d2d2d2d2d0000000000000000000000815250610f32565b610cc181610f32565b610cff6040518060400160405280601581526020017f2d2d2d2d2d2d2d2d2d2d2d2d2d2d2d2d2d2d2d2d0a0000000000000000000000815250610f32565b610d093386611782565b610d1385826117a0565b610d1d6007611814565b610d406040518060600160405280602581526020016134ea60259139863361182a565b7febb98688741ffa4c7589bf325de30cf7becb63de567842e1ccdb6cb949fdc82c3386604051610d719291906127eb565b60405180910390a15050505050565b60606000610db4610d90846118c9565b604051602001610da091906126fb565b604051602081830303815290604052611a76565b905060098054905081610dc79190612dcf565b905060098181548110610e03577f4e487b7100000000000000000000000000000000000000000000000000000000600052603260045260246000fd5b906000526020600020018054610e1890612d23565b80601f0160208091040260200160405190810160405280929190818152602001828054610e4490612d23565b8015610e915780601f10610e6657610100808354040283529160200191610e91565b820191906000526020600020905b815481529060010190602001808311610e7457829003601f168201915b5050505050915050919050565b6000600560008473ffffffffffffffffffffffffffffffffffffffff1673ffffffffffffffffffffffffffffffffffffffff16815260200190815260200160002060008373ffffffffffffffffffffffffffffffffffffffff1673ffffffffffffffffffffffffffffffffffffffff16815260200190815260200160002060009054906101000a900460ff16905092915050565b610fc881604051602401610f46919061282f565b6040516020818303038152906040527f41304fac000000000000000000000000000000000000000000000000000000007bffffffffffffffffffffffffffffffffffffffffffffffffffffffff19166020820180517bffffffffffffffffffffffffffffffffffffffffffffffffffffffff8381831617835250505050611aa9565b50565b60007f01ffc9a7000000000000000000000000000000000000000000000000000000007bffffffffffffffffffffffffffffffffffffffffffffffffffffffff1916827bffffffffffffffffffffffffffffffffffffffffffffffffffffffff1916149050919050565b60008073ffffffffffffffffffffffffffffffffffffffff166002600084815260200190815260200160002060009054906101000a900473ffffffffffffffffffffffffffffffffffffffff1673ffffffffffffffffffffffffffffffffffffffff1614159050919050565b600033905090565b816004600083815260200190815260200160002060006101000a81548173ffffffffffffffffffffffffffffffffffffffff021916908373ffffffffffffffffffffffffffffffffffffffff160217905550808273ffffffffffffffffffffffffffffffffffffffff1661111c836106ad565b73ffffffffffffffffffffffffffffffffffffffff167f8c5be1e5ebec7d5bd14f71427d1e84f3dd0314c0f7b2291e5b200ac8c7c3b92560405160405180910390a45050565b600061116d82611035565b6111ac576040517f08c379a00000000000000000000000000000000000000000000000000000000081526004016111a39061290f565b60405180910390fd5b60006111b7836106ad565b90508073ffffffffffffffffffffffffffffffffffffffff168473ffffffffffffffffffffffffffffffffffffffff16148061122657508373ffffffffffffffffffffffffffffffffffffffff1661120e84610490565b73ffffffffffffffffffffffffffffffffffffffff16145b8061123757506112368185610e9e565b5b91505092915050565b8273ffffffffffffffffffffffffffffffffffffffff16611260826106ad565b73ffffffffffffffffffffffffffffffffffffffff16146112b6576040517f08c379a00000000000000000000000000000000000000000000000000000000081526004016112ad90612a0f565b60405180910390fd5b600073ffffffffffffffffffffffffffffffffffffffff168273ffffffffffffffffffffffffffffffffffffffff161415611326576040517f08c379a000000000000000000000000000000000000000000000000000000000815260040161131d906128cf565b60405180910390fd5b611331838383611ad2565b61133c6000826110a9565b6001600360008573ffffffffffffffffffffffffffffffffffffffff1673ffffffffffffffffffffffffffffffffffffffff168152602001908152602001600020600082825461138c9190612c39565b925050819055506001600360008473ffffffffffffffffffffffffffffffffffffffff1673ffffffffffffffffffffffffffffffffffffffff16815260200190815260200160002060008282546113e39190612b58565b92505081905550816002600083815260200190815260200160002060006101000a81548173ffffffffffffffffffffffffffffffffffffffff021916908373ffffffffffffffffffffffffffffffffffffffff160217905550808273ffffffffffffffffffffffffffffffffffffffff168473ffffffffffffffffffffffffffffffffffffffff167fddf252ad1be2c89b69c2b068fc378daa952ba7f163c4a11628f55a4df523b3ef60405160405180910390a4505050565b6114a7848484611240565b6114b384848484611ad7565b6114f2576040517f08c379a00000000000000000000000000000000000000000000000000000000081526004016114e99061288f565b60405180910390fd5b50505050565b606060405180602001604052806000815250905090565b606061151a82611035565b611559576040517f08c379a000000000000000000000000000000000000000000000000000000000815260040161155090612a2f565b60405180910390fd5b60006115636114f8565b9050600081511161158357604051806020016040528060008152506115ae565b8061158d846118c9565b60405160200161159e9291906126a8565b6040516020818303038152906040525b915050919050565b600081600001549050919050565b606060008251905060008114156115ed576040518060200160405280600081525091505061177d565b600060036002836115fe9190612b58565b6116089190612bae565b60046116149190612bdf565b905060006020826116259190612b58565b67ffffffffffffffff811115611664577f4e487b7100000000000000000000000000000000000000000000000000000000600052604160045260246000fd5b6040519080825280601f01601f1916602001820160405280156116965781602001600182028036833780820191505090505b509050600060405180606001604052806040815260200161350f604091399050600181016020830160005b8681101561173a5760038101905062ffffff818a015116603f8160121c168401518060081b905060ff603f83600c1c1686015116810190508060081b905060ff603f8360061c1686015116810190508060081b905060ff603f831686015116810190508060e01b905080845260048401935050506116c1565b50600386066001811461175457600281146117645761176f565b613d3d60f01b600283035261176f565b603d60f81b60018303525b508484525050819450505050505b919050565b61179c828260405180602001604052806000815250611c6e565b5050565b6117a982611035565b6117e8576040517f08c379a00000000000000000000000000000000000000000000000000000000081526004016117df9061298f565b60405180910390fd5b8060066000848152602001908152602001600020908051906020019061180f929190611eaa565b505050565b6001816000016000828254019250508190555050565b6118c483838360405160240161184293929190612851565b6040516020818303038152906040527fe3849f79000000000000000000000000000000000000000000000000000000007bffffffffffffffffffffffffffffffffffffffffffffffffffffffff19166020820180517bffffffffffffffffffffffffffffffffffffffffffffffffffffffff8381831617835250505050611aa9565b505050565b60606000821415611911576040518060400160405280600181526020017f30000000000000000000000000000000000000000000000000000000000000008152509050611a71565b600082905060005b6000821461194357808061192c90612d86565b915050600a8261193c9190612bae565b9150611919565b60008167ffffffffffffffff811115611985577f4e487b7100000000000000000000000000000000000000000000000000000000600052604160045260246000fd5b6040519080825280601f01601f1916602001820160405280156119b75781602001600182028036833780820191505090505b5090505b60008514611a6a576001826119d09190612c39565b9150600a856119df9190612dcf565b60306119eb9190612b58565b60f81b818381518110611a27577f4e487b7100000000000000000000000000000000000000000000000000000000600052603260045260246000fd5b60200101907effffffffffffffffffffffffffffffffffffffffffffffffffffffffffffff1916908160001a905350600a85611a639190612bae565b94506119bb565b8093505050505b919050565b600081604051602001611a899190612691565b6040516020818303038152906040528051906020012060001c9050919050565b60008151905060006a636f6e736f6c652e6c6f679050602083016000808483855afa5050505050565b505050565b6000611af88473ffffffffffffffffffffffffffffffffffffffff16611cc9565b15611c61578373ffffffffffffffffffffffffffffffffffffffff1663150b7a02611b216110a1565b8786866040518563ffffffff1660e01b8152600401611b43949392919061279f565b602060405180830381600087803b158015611b5d57600080fd5b505af1925050508015611b8e57506040513d601f19601f82011682018060405250810190611b8b91906121ee565b60015b611c11573d8060008114611bbe576040519150601f19603f3d011682016040523d82523d6000602084013e611bc3565b606091505b50600081511415611c09576040517f08c379a0000000000000000000000000000000000000000000000000000000008152600401611c009061288f565b60405180910390fd5b805181602001fd5b63150b7a0260e01b7bffffffffffffffffffffffffffffffffffffffffffffffffffffffff1916817bffffffffffffffffffffffffffffffffffffffffffffffffffffffff191614915050611c66565b600190505b949350505050565b611c788383611cdc565b611c856000848484611ad7565b611cc4576040517f08c379a0000000000000000000000000000000000000000000000000000000008152600401611cbb9061288f565b60405180910390fd5b505050565b600080823b905060008111915050919050565b600073ffffffffffffffffffffffffffffffffffffffff168273ffffffffffffffffffffffffffffffffffffffff161415611d4c576040517f08c379a0000000000000000000000000000000000000000000000000000000008152600401611d43906129af565b60405180910390fd5b611d5581611035565b15611d95576040517f08c379a0000000000000000000000000000000000000000000000000000000008152600401611d8c906128af565b60405180910390fd5b611da160008383611ad2565b6001600360008473ffffffffffffffffffffffffffffffffffffffff1673ffffffffffffffffffffffffffffffffffffffff1681526020019081526020016000206000828254611df19190612b58565b92505081905550816002600083815260200190815260200160002060006101000a81548173ffffffffffffffffffffffffffffffffffffffff021916908373ffffffffffffffffffffffffffffffffffffffff160217905550808273ffffffffffffffffffffffffffffffffffffffff16600073ffffffffffffffffffffffffffffffffffffffff167fddf252ad1be2c89b69c2b068fc378daa952ba7f163c4a11628f55a4df523b3ef60405160405180910390a45050565b828054611eb690612d23565b90600052602060002090601f016020900481019282611ed85760008555611f1f565b82601f10611ef157805160ff1916838001178555611f1f565b82800160010185558215611f1f579182015b82811115611f1e578251825591602001919060010190611f03565b5b509050611f2c9190611f30565b5090565b5b80821115611f49576000816000905550600101611f31565b5090565b6000611f60611f5b84612acf565b612aaa565b905082815260208101848484011115611f7857600080fd5b611f83848285612ce1565b509392505050565b600081359050611f9a8161348d565b92915050565b600081359050611faf816134a4565b92915050565b600081359050611fc4816134bb565b92915050565b600081519050611fd9816134bb565b92915050565b600082601f830112611ff057600080fd5b8135612000848260208601611f4d565b91505092915050565b600081359050612018816134d2565b92915050565b60006020828403121561203057600080fd5b600061203e84828501611f8b565b91505092915050565b6000806040838503121561205a57600080fd5b600061206885828601611f8b565b925050602061207985828601611f8b565b9150509250929050565b60008060006060848603121561209857600080fd5b60006120a686828701611f8b565b93505060206120b786828701611f8b565b92505060406120c886828701612009565b9150509250925092565b600080600080608085870312156120e857600080fd5b60006120f687828801611f8b565b945050602061210787828801611f8b565b935050604061211887828801612009565b925050606085013567ffffffffffffffff81111561213557600080fd5b61214187828801611fdf565b91505092959194509250565b6000806040838503121561216057600080fd5b600061216e85828601611f8b565b925050602061217f85828601611fa0565b9150509250929050565b6000806040838503121561219c57600080fd5b60006121aa85828601611f8b565b92505060206121bb85828601612009565b9150509250929050565b6000602082840312156121d757600080fd5b60006121e584828501611fb5565b91505092915050565b60006020828403121561220057600080fd5b600061220e84828501611fca565b91505092915050565b60006020828403121561222957600080fd5b600061223784828501612009565b91505092915050565b61224981612c6d565b82525050565b61225881612c7f565b82525050565b600061226982612b15565b6122738185612b2b565b9350612283818560208601612cf0565b61228c81612ebc565b840191505092915050565b60006122a282612b20565b6122ac8185612b3c565b93506122bc818560208601612cf0565b6122c581612ebc565b840191505092915050565b60006122db82612b20565b6122e58185612b4d565b93506122f5818560208601612cf0565b80840191505092915050565b6000815461230e81612d23565b6123188186612b4d565b94506001821660008114612333576001811461234457612377565b60ff19831686528186019350612377565b61234d85612b00565b60005b8381101561236f57815481890152600182019150602081019050612350565b838801955050505b50505092915050565b600061238d603283612b3c565b915061239882612ecd565b604082019050919050565b60006123b0601c83612b3c565b91506123bb82612f1c565b602082019050919050565b60006123d3604f83612b4d565b91506123de82612f45565b604f82019050919050565b60006123f6600683612b4d565b915061240182612fba565b600682019050919050565b6000612419602483612b3c565b915061242482612fe3565b604082019050919050565b600061243c601983612b3c565b915061244782613032565b602082019050919050565b600061245f602c83612b3c565b915061246a8261305b565b604082019050919050565b6000612482600d83612b4d565b915061248d826130aa565b600d82019050919050565b60006124a5603883612b3c565b91506124b0826130d3565b604082019050919050565b60006124c8602a83612b3c565b91506124d382613122565b604082019050919050565b60006124eb602983612b3c565b91506124f682613171565b604082019050919050565b600061250e602e83612b3c565b9150612519826131c0565b604082019050919050565b6000612531600283612b4d565b915061253c8261320f565b600282019050919050565b6000612554602083612b3c565b915061255f82613238565b602082019050919050565b6000612577603183612b3c565b915061258282613261565b604082019050919050565b600061259a602c83612b3c565b91506125a5826132b0565b604082019050919050565b60006125bd602983612b3c565b91506125c8826132ff565b604082019050919050565b60006125e0602f83612b3c565b91506125eb8261334e565b604082019050919050565b6000612603600a83612b4d565b915061260e8261339d565b600a82019050919050565b6000612626602183612b3c565b9150612631826133c6565b604082019050919050565b6000612649601d83612b4d565b915061265482613415565b601d82019050919050565b600061266c603183612b3c565b91506126778261343e565b604082019050919050565b61268b81612cd7565b82525050565b600061269d82846122d0565b915081905092915050565b60006126b482856122d0565b91506126c082846122d0565b91508190509392505050565b60006126d88285612301565b91506126e482846122d0565b91506126ef82612475565b91508190509392505050565b6000612706826123e9565b915061271282846122d0565b915081905092915050565b6000612728826125f6565b915061273482856122d0565b915061273f826123c6565b915061274b82846122d0565b915061275682612524565b91508190509392505050565b600061276d8261263c565b915061277982846122d0565b915081905092915050565b60006020820190506127996000830184612240565b92915050565b60006080820190506127b46000830187612240565b6127c16020830186612240565b6127ce6040830185612682565b81810360608301526127e0818461225e565b905095945050505050565b60006040820190506128006000830185612240565b61280d6020830184612682565b9392505050565b6000602082019050612829600083018461224f565b92915050565b600060208201905081810360008301526128498184612297565b905092915050565b6000606082019050818103600083015261286b8186612297565b905061287a6020830185612682565b6128876040830184612240565b949350505050565b600060208201905081810360008301526128a881612380565b9050919050565b600060208201905081810360008301526128c8816123a3565b9050919050565b600060208201905081810360008301526128e88161240c565b9050919050565b600060208201905081810360008301526129088161242f565b9050919050565b6000602082019050818103600083015261292881612452565b9050919050565b6000602082019050818103600083015261294881612498565b9050919050565b60006020820190508181036000830152612968816124bb565b9050919050565b60006020820190508181036000830152612988816124de565b9050919050565b600060208201905081810360008301526129a881612501565b9050919050565b600060208201905081810360008301526129c881612547565b9050919050565b600060208201905081810360008301526129e88161256a565b9050919050565b60006020820190508181036000830152612a088161258d565b9050919050565b60006020820190508181036000830152612a28816125b0565b9050919050565b60006020820190508181036000830152612a48816125d3565b9050919050565b60006020820190508181036000830152612a6881612619565b9050919050565b60006020820190508181036000830152612a888161265f565b9050919050565b6000602082019050612aa46000830184612682565b92915050565b6000612ab4612ac5565b9050612ac08282612d55565b919050565b6000604051905090565b600067ffffffffffffffff821115612aea57612ae9612e8d565b5b612af382612ebc565b9050602081019050919050565b60008190508160005260206000209050919050565b600081519050919050565b600081519050919050565b600082825260208201905092915050565b600082825260208201905092915050565b600081905092915050565b6000612b6382612cd7565b9150612b6e83612cd7565b9250827fffffffffffffffffffffffffffffffffffffffffffffffffffffffffffffffff03821115612ba357612ba2612e00565b5b828201905092915050565b6000612bb982612cd7565b9150612bc483612cd7565b925082612bd457612bd3612e2f565b5b828204905092915050565b6000612bea82612cd7565b9150612bf583612cd7565b9250817fffffffffffffffffffffffffffffffffffffffffffffffffffffffffffffffff0483118215151615612c2e57612c2d612e00565b5b828202905092915050565b6000612c4482612cd7565b9150612c4f83612cd7565b925082821015612c6257612c61612e00565b5b828203905092915050565b6000612c7882612cb7565b9050919050565b60008115159050919050565b60007fffffffff0000000000000000000000000000000000000000000000000000000082169050919050565b600073ffffffffffffffffffffffffffffffffffffffff82169050919050565b6000819050919050565b82818337600083830152505050565b60005b83811015612d0e578082015181840152602081019050612cf3565b83811115612d1d576000848401525b50505050565b60006002820490506001821680612d3b57607f821691505b60208210811415612d4f57612d4e612e5e565b5b50919050565b612d5e82612ebc565b810181811067ffffffffffffffff82111715612d7d57612d7c612e8d565b5b80604052505050565b6000612d9182612cd7565b91507fffffffffffffffffffffffffffffffffffffffffffffffffffffffffffffffff821415612dc457612dc3612e00565b5b600182019050919050565b6000612dda82612cd7565b9150612de583612cd7565b925082612df557612df4612e2f565b5b828206905092915050565b7f4e487b7100000000000000000000000000000000000000000000000000000000600052601160045260246000fd5b7f4e487b7100000000000000000000000000000000000000000000000000000000600052601260045260246000fd5b7f4e487b7100000000000000000000000000000000000000000000000000000000600052602260045260246000fd5b7f4e487b7100000000000000000000000000000000000000000000000000000000600052604160045260246000fd5b6000601f19601f8301169050919050565b7f4552433732313a207472616e7366657220746f206e6f6e20455243373231526560008201527f63656976657220696d706c656d656e7465720000000000000000000000000000602082015250565b7f4552433732313a20746f6b656e20616c7265616479206d696e74656400000000600082015250565b7f222c20226465736372697074696f6e223a2022596f75722076657279206f776e60008201527f2056616c6461782e222c2022696d616765223a2022646174613a696d6167652f60208201527f7376672b786d6c3b6261736536342c0000000000000000000000000000000000604082015250565b7f76616c6461780000000000000000000000000000000000000000000000000000600082015250565b7f4552433732313a207472616e7366657220746f20746865207a65726f2061646460008201527f7265737300000000000000000000000000000000000000000000000000000000602082015250565b7f4552433732313a20617070726f766520746f2063616c6c657200000000000000600082015250565b7f4552433732313a206f70657261746f7220717565727920666f72206e6f6e657860008201527f697374656e7420746f6b656e0000000000000000000000000000000000000000602082015250565b7f3c2f746578743e3c2f7376673e00000000000000000000000000000000000000600082015250565b7f4552433732313a20617070726f76652063616c6c6572206973206e6f74206f7760008201527f6e6572206e6f7220617070726f76656420666f7220616c6c0000000000000000602082015250565b7f4552433732313a2062616c616e636520717565727920666f7220746865207a6560008201527f726f206164647265737300000000000000000000000000000000000000000000602082015250565b7f4552433732313a206f776e657220717565727920666f72206e6f6e657869737460008201527f656e7420746f6b656e0000000000000000000000000000000000000000000000602082015250565b7f45524337323155524953746f726167653a2055524920736574206f66206e6f6e60008201527f6578697374656e7420746f6b656e000000000000000000000000000000000000602082015250565b7f227d000000000000000000000000000000000000000000000000000000000000600082015250565b7f4552433732313a206d696e7420746f20746865207a65726f2061646472657373600082015250565b7f45524337323155524953746f726167653a2055524920717565727920666f722060008201527f6e6f6e6578697374656e7420746f6b656e000000000000000000000000000000602082015250565b7f4552433732313a20617070726f76656420717565727920666f72206e6f6e657860008201527f697374656e7420746f6b656e0000000000000000000000000000000000000000602082015250565b7f4552433732313a207472616e73666572206f6620746f6b656e2074686174206960008201527f73206e6f74206f776e0000000000000000000000000000000000000000000000602082015250565b7f4552433732314d657461646174613a2055524920717565727920666f72206e6f60008201527f6e6578697374656e7420746f6b656e0000000000000000000000000000000000602082015250565b7f7b226e616d65223a202200000000000000000000000000000000000000000000600082015250565b7f4552433732313a20617070726f76616c20746f2063757272656e74206f776e6560008201527f7200000000000000000000000000000000000000000000000000000000000000602082015250565b7f646174613a6170706c69636174696f6e2f6a736f6e3b6261736536342c000000600082015250565b7f4552433732313a207472616e736665722063616c6c6572206973206e6f74206f60008201527f776e6572206e6f7220617070726f766564000000000000000000000000000000602082015250565b61349681612c6d565b81146134a157600080fd5b50565b6134ad81612c7f565b81146134b857600080fd5b50565b6134c481612c8b565b81146134cf57600080fd5b50565b6134db81612cd7565b81146134e657600080fd5b5056fe416e204e465420772f20494420257320686173206265656e206d696e74656420746f2025734142434445464748494a4b4c4d4e4f505152535455565758595a6162636465666768696a6b6c6d6e6f707172737475767778797a303132333435363738392b2fa2646970667358221220e8fdb55d7bd4580f9ae4b02ae95d2df8a405aa9fb66aa7131eb2345f8589e78e64736f6c634300080400333c73766720786d6c6e733d27687474703a2f2f7777772e77332e6f72672f323030302f73766727207072657365727665417370656374526174696f3d27784d696e594d696e206d656574272076696577426f783d273020302033353020333530273e3c7374796c653e2e62617365207b2066696c6c3a2077686974653b20666f6e742d66616d696c793a2073657269663b20666f6e742d73697a653a20323470783b207d3c2f7374796c653e3c726563742077696474683d273130302527206865696768743d2731303025272066696c6c3d27626c61636b27202f3e3c7465787420783d273530252720793d273530252720636c6173733d27626173652720646f6d696e616e742d626173656c696e653d276d6964646c652720746578742d616e63686f723d276d6964646c65273e",
  "linkReferences": {},
  "deployedLinkReferences": {}
}