{
  "_format": "hh-sol-artifact-1",
  "contractName": "MyEpicNFT",
  "sourceName": "contracts/MyEpicNFT.sol",
  "abi": [
    {
      "inputs": [],
      "stateMutability": "nonpayable",
      "type": "constructor"
    },
    {
      "anonymous": false,
      "inputs": [
        {
          "indexed": true,
          "internalType": "address",
          "name": "owner",
          "type": "address"
        },
        {
          "indexed": true,
          "internalType": "address",
          "name": "approved",
          "type": "address"
        },
        {
          "indexed": true,
          "internalType": "uint256",
          "name": "tokenId",
          "type": "uint256"
        }
      ],
      "name": "Approval",
      "type": "event"
    },
    {
      "anonymous": false,
      "inputs": [
        {
          "indexed": true,
          "internalType": "address",
          "name": "owner",
          "type": "address"
        },
        {
          "indexed": true,
          "internalType": "address",
          "name": "operator",
          "type": "address"
        },
        {
          "indexed": false,
          "internalType": "bool",
          "name": "approved",
          "type": "bool"
        }
      ],
      "name": "ApprovalForAll",
      "type": "event"
    },
    {
      "anonymous": false,
      "inputs": [
        {
          "indexed": true,
          "internalType": "address",
          "name": "from",
          "type": "address"
        },
        {
          "indexed": true,
          "internalType": "address",
          "name": "to",
          "type": "address"
        },
        {
          "indexed": true,
          "internalType": "uint256",
          "name": "tokenId",
          "type": "uint256"
        }
      ],
      "name": "Transfer",
      "type": "event"
    },
    {
      "inputs": [
        {
          "internalType": "address",
          "name": "to",
          "type": "address"
        },
        {
          "internalType": "uint256",
          "name": "tokenId",
          "type": "uint256"
        }
      ],
      "name": "approve",
      "outputs": [],
      "stateMutability": "nonpayable",
      "type": "function"
    },
    {
      "inputs": [
        {
          "internalType": "address",
          "name": "owner",
          "type": "address"
        }
      ],
      "name": "balanceOf",
      "outputs": [
        {
          "internalType": "uint256",
          "name": "",
          "type": "uint256"
        }
      ],
      "stateMutability": "view",
      "type": "function"
    },
    {
      "inputs": [
        {
          "internalType": "uint256",
          "name": "tokenId",
          "type": "uint256"
        }
      ],
      "name": "getApproved",
      "outputs": [
        {
          "internalType": "address",
          "name": "",
          "type": "address"
        }
      ],
      "stateMutability": "view",
      "type": "function"
    },
    {
      "inputs": [
        {
          "internalType": "address",
          "name": "owner",
          "type": "address"
        },
        {
          "internalType": "address",
          "name": "operator",
          "type": "address"
        }
      ],
      "name": "isApprovedForAll",
      "outputs": [
        {
          "internalType": "bool",
          "name": "",
          "type": "bool"
        }
      ],
      "stateMutability": "view",
      "type": "function"
    },
    {
      "inputs": [],
      "name": "makeAnEpicNFT",
      "outputs": [],
      "stateMutability": "nonpayable",
      "type": "function"
    },
    {
      "inputs": [],
      "name": "name",
      "outputs": [
        {
          "internalType": "string",
          "name": "",
          "type": "string"
        }
      ],
      "stateMutability": "view",
      "type": "function"
    },
    {
      "inputs": [
        {
          "internalType": "uint256",
          "name": "tokenId",
          "type": "uint256"
        }
      ],
      "name": "ownerOf",
      "outputs": [
        {
          "internalType": "address",
          "name": "",
          "type": "address"
        }
      ],
      "stateMutability": "view",
      "type": "function"
    },
    {
      "inputs": [
        {
          "internalType": "uint256",
          "name": "tokenId",
          "type": "uint256"
        }
      ],
      "name": "pickRandomValdax",
      "outputs": [
        {
          "internalType": "string",
          "name": "",
          "type": "string"
        }
      ],
      "stateMutability": "view",
      "type": "function"
    },
    {
      "inputs": [
        {
          "internalType": "address",
          "name": "from",
          "type": "address"
        },
        {
          "internalType": "address",
          "name": "to",
          "type": "address"
        },
        {
          "internalType": "uint256",
          "name": "tokenId",
          "type": "uint256"
        }
      ],
      "name": "safeTransferFrom",
      "outputs": [],
      "stateMutability": "nonpayable",
      "type": "function"
    },
    {
      "inputs": [
        {
          "internalType": "address",
          "name": "from",
          "type": "address"
        },
        {
          "internalType": "address",
          "name": "to",
          "type": "address"
        },
        {
          "internalType": "uint256",
          "name": "tokenId",
          "type": "uint256"
        },
        {
          "internalType": "bytes",
          "name": "_data",
          "type": "bytes"
        }
      ],
      "name": "safeTransferFrom",
      "outputs": [],
      "stateMutability": "nonpayable",
      "type": "function"
    },
    {
      "inputs": [
        {
          "internalType": "address",
          "name": "operator",
          "type": "address"
        },
        {
          "internalType": "bool",
          "name": "approved",
          "type": "bool"
        }
      ],
      "name": "setApprovalForAll",
      "outputs": [],
      "stateMutability": "nonpayable",
      "type": "function"
    },
    {
      "inputs": [
        {
          "internalType": "bytes4",
          "name": "interfaceId",
          "type": "bytes4"
        }
      ],
      "name": "supportsInterface",
      "outputs": [
        {
          "internalType": "bool",
          "name": "",
          "type": "bool"
        }
      ],
      "stateMutability": "view",
      "type": "function"
    },
    {
      "inputs": [],
      "name": "symbol",
      "outputs": [
        {
          "internalType": "string",
          "name": "",
          "type": "string"
        }
      ],
      "stateMutability": "view",
      "type": "function"
    },
    {
      "inputs": [
        {
          "internalType": "uint256",
          "name": "tokenId",
          "type": "uint256"
        }
      ],
      "name": "tokenURI",
      "outputs": [
        {
          "internalType": "string",
          "name": "",
          "type": "string"
        }
      ],
      "stateMutability": "view",
      "type": "function"
    },
    {
      "inputs": [
        {
          "internalType": "address",
          "name": "from",
          "type": "address"
        },
        {
          "internalType": "address",
          "name": "to",
          "type": "address"
        },
        {
          "internalType": "uint256",
          "name": "tokenId",
          "type": "uint256"
        }
      ],
      "name": "transferFrom",
      "outputs": [],
      "stateMutability": "nonpayable",
      "type": "function"
    }
  ],
  "bytecode": "0x608060405260405180610160016040528061012f815260200162003b6661012f9139600890805190602001906200003892919062000382565b506040518060c001604052806040518060400160405280600a81526020017f56616c646170617061780000000000000000000000000000000000000000000081525081526020016040518060400160405280600b81526020017f56616c6c616372696d617800000000000000000000000000000000000000000081525081526020016040518060400160405280600b81526020017f56616c6e696262616c617800000000000000000000000000000000000000000081525081526020016040518060400160405280600c81526020017f56616c6d75726164696e6178000000000000000000000000000000000000000081525081526020016040518060400160405280600b81526020017f56616c6775696c756d617800000000000000000000000000000000000000000081525081526020016040518060400160405280600c81526020017f56616c736b7977616c6b617800000000000000000000000000000000000000008152508152506009906006620001b692919062000413565b50348015620001c457600080fd5b506040518060400160405280600981526020017f5371756172654e465400000000000000000000000000000000000000000000008152506040518060400160405280600681526020017f535155415245000000000000000000000000000000000000000000000000000081525081600090805190602001906200024992919062000382565b5080600190805190602001906200026292919062000382565b505050620002b06040518060400160405280601e81526020017f54686973206973206d79204e465420636f6e74726163742e20576f6168210000815250620002b660201b62000ef91760201c565b62000634565b6200035681604051602401620002cd919062000548565b6040516020818303038152906040527f41304fac000000000000000000000000000000000000000000000000000000007bffffffffffffffffffffffffffffffffffffffffffffffffffffffff19166020820180517bffffffffffffffffffffffffffffffffffffffffffffffffffffffff83818316178352505050506200035960201b60201c565b50565b60008151905060006a636f6e736f6c652e6c6f679050602083016000808483855afa5050505050565b8280546200039090620005be565b90600052602060002090601f016020900481019282620003b4576000855562000400565b82601f10620003cf57805160ff191683800117855562000400565b8280016001018555821562000400579182015b82811115620003ff578251825591602001919060010190620003e2565b5b5090506200040f91906200047a565b5090565b82805482825590600052602060002090810192821562000467579160200282015b82811115620004665782518290805190602001906200045592919062000382565b509160200191906001019062000434565b5b50905062000476919062000499565b5090565b5b80821115620004955760008160009055506001016200047b565b5090565b5b80821115620004bd5760008181620004b39190620004c1565b506001016200049a565b5090565b508054620004cf90620005be565b6000825580601f10620004e3575062000504565b601f0160209004906000526020600020908101906200050391906200047a565b5b50565b600062000514826200056c565b62000520818562000577565b93506200053281856020860162000588565b6200053d8162000623565b840191505092915050565b6000602082019050818103600083015262000564818462000507565b905092915050565b600081519050919050565b600082825260208201905092915050565b60005b83811015620005a85780820151818401526020810190506200058b565b83811115620005b8576000848401525b50505050565b60006002820490506001821680620005d757607f821691505b60208210811415620005ee57620005ed620005f4565b5b50919050565b7f4e487b7100000000000000000000000000000000000000000000000000000000600052602260045260246000fd5b6000601f19601f8301169050919050565b61352280620006446000396000f3fe608060405234801561001057600080fd5b50600436106100f55760003560e01c806370a0823111610097578063c87b56dd11610066578063c87b56dd14610282578063de9d132f146102b2578063e6a7014a146102bc578063e985e9c5146102ec576100f5565b806370a08231146101fc57806395d89b411461022c578063a22cb4651461024a578063b88d4fde14610266576100f5565b8063095ea7b3116100d3578063095ea7b31461017857806323b872dd1461019457806342842e0e146101b05780636352211e146101cc576100f5565b806301ffc9a7146100fa57806306fdde031461012a578063081812fc14610148575b600080fd5b610114600480360381019061010f919061218c565b61031c565b60405161012191906127b2565b60405180910390f35b6101326103fe565b60405161013f91906127cd565b60405180910390f35b610162600480360381019061015d91906121de565b610490565b60405161016f919061274b565b60405180910390f35b610192600480360381019061018d9190612150565b610515565b005b6101ae60048036038101906101a9919061204a565b61062d565b005b6101ca60048036038101906101c5919061204a565b61068d565b005b6101e660048036038101906101e191906121de565b6106ad565b6040516101f3919061274b565b60405180910390f35b61021660048036038101906102119190611fe5565b61075f565b6040516102239190612a2d565b60405180910390f35b610234610817565b60405161024191906127cd565b60405180910390f35b610264600480360381019061025f9190612114565b6108a9565b005b610280600480360381019061027b9190612099565b610a2a565b005b61029c600480360381019061029791906121de565b610a8c565b6040516102a991906127cd565b60405180910390f35b6102ba610bde565b005b6102d660048036038101906102d191906121de565b610d47565b6040516102e391906127cd565b60405180910390f35b6103066004803603810190610301919061200e565b610e65565b60405161031391906127b2565b60405180910390f35b60007f80ac58cd000000000000000000000000000000000000000000000000000000007bffffffffffffffffffffffffffffffffffffffffffffffffffffffff1916827bffffffffffffffffffffffffffffffffffffffffffffffffffffffff191614806103e757507f5b5e139f000000000000000000000000000000000000000000000000000000007bffffffffffffffffffffffffffffffffffffffffffffffffffffffff1916827bffffffffffffffffffffffffffffffffffffffffffffffffffffffff1916145b806103f757506103f682610f92565b5b9050919050565b60606000805461040d90612cc1565b80601f016020809104026020016040519081016040528092919081815260200182805461043990612cc1565b80156104865780601f1061045b57610100808354040283529160200191610486565b820191906000526020600020905b81548152906001019060200180831161046957829003601f168201915b5050505050905090565b600061049b82610ffc565b6104da576040517f08c379a00000000000000000000000000000000000000000000000000000000081526004016104d19061298d565b60405180910390fd5b6004600083815260200190815260200160002060009054906101000a900473ffffffffffffffffffffffffffffffffffffffff169050919050565b6000610520826106ad565b90508073ffffffffffffffffffffffffffffffffffffffff168373ffffffffffffffffffffffffffffffffffffffff161415610591576040517f08c379a0000000000000000000000000000000000000000000000000000000008152600401610588906129ed565b60405180910390fd5b8073ffffffffffffffffffffffffffffffffffffffff166105b0611068565b73ffffffffffffffffffffffffffffffffffffffff1614806105df57506105de816105d9611068565b610e65565b5b61061e576040517f08c379a0000000000000000000000000000000000000000000000000000000008152600401610615906128cd565b60405180910390fd5b6106288383611070565b505050565b61063e610638611068565b82611129565b61067d576040517f08c379a000000000000000000000000000000000000000000000000000000000815260040161067490612a0d565b60405180910390fd5b610688838383611207565b505050565b6106a883838360405180602001604052806000815250610a2a565b505050565b6000806002600084815260200190815260200160002060009054906101000a900473ffffffffffffffffffffffffffffffffffffffff169050600073ffffffffffffffffffffffffffffffffffffffff168173ffffffffffffffffffffffffffffffffffffffff161415610756576040517f08c379a000000000000000000000000000000000000000000000000000000000815260040161074d9061290d565b60405180910390fd5b80915050919050565b60008073ffffffffffffffffffffffffffffffffffffffff168273ffffffffffffffffffffffffffffffffffffffff1614156107d0576040517f08c379a00000000000000000000000000000000000000000000000000000000081526004016107c7906128ed565b60405180910390fd5b600360008373ffffffffffffffffffffffffffffffffffffffff1673ffffffffffffffffffffffffffffffffffffffff168152602001908152602001600020549050919050565b60606001805461082690612cc1565b80601f016020809104026020016040519081016040528092919081815260200182805461085290612cc1565b801561089f5780601f106108745761010080835404028352916020019161089f565b820191906000526020600020905b81548152906001019060200180831161088257829003601f168201915b5050505050905090565b6108b1611068565b73ffffffffffffffffffffffffffffffffffffffff168273ffffffffffffffffffffffffffffffffffffffff16141561091f576040517f08c379a00000000000000000000000000000000000000000000000000000000081526004016109169061288d565b60405180910390fd5b806005600061092c611068565b73ffffffffffffffffffffffffffffffffffffffff1673ffffffffffffffffffffffffffffffffffffffff16815260200190815260200160002060008473ffffffffffffffffffffffffffffffffffffffff1673ffffffffffffffffffffffffffffffffffffffff16815260200190815260200160002060006101000a81548160ff0219169083151502179055508173ffffffffffffffffffffffffffffffffffffffff166109d9611068565b73ffffffffffffffffffffffffffffffffffffffff167f17307eab39ab6107e8899845ad3d59bd9653f200f220920489ca2b5937696c3183604051610a1e91906127b2565b60405180910390a35050565b610a3b610a35611068565b83611129565b610a7a576040517f08c379a0000000000000000000000000000000000000000000000000000000008152600401610a7190612a0d565b60405180910390fd5b610a8684848484611463565b50505050565b6060610a9782610ffc565b610ad6576040517f08c379a0000000000000000000000000000000000000000000000000000000008152600401610acd9061296d565b60405180910390fd5b6000600660008481526020019081526020016000208054610af690612cc1565b80601f0160208091040260200160405190810160405280929190818152602001828054610b2290612cc1565b8015610b6f5780601f10610b4457610100808354040283529160200191610b6f565b820191906000526020600020905b815481529060010190602001808311610b5257829003601f168201915b505050505090506000610b806114bf565b9050600081511415610b96578192505050610bd9565b600082511115610bcb578082604051602001610bb392919061266f565b60405160208183030381529060405292505050610bd9565b610bd4846114d6565b925050505b919050565b6000610bea600761157d565b90506000610bf782610d47565b90506000600882604051602001610c0f929190612693565b60405160208183030381529060405290506000610c5483610c2f8461158b565b604051602001610c409291906126e4565b60405160208183030381529060405261158b565b9050600081604051602001610c699190612729565b6040516020818303038152906040529050610cb86040518060400160405280601581526020017f0a2d2d2d2d2d2d2d2d2d2d2d2d2d2d2d2d2d2d2d2d0000000000000000000000815250610ef9565b610cc181610ef9565b610cff6040518060400160405280601581526020017f2d2d2d2d2d2d2d2d2d2d2d2d2d2d2d2d2d2d2d2d0a0000000000000000000000815250610ef9565b610d093386611749565b610d138582611767565b610d1d60076117db565b610d406040518060600160405280602581526020016134886025913986336117f1565b5050505050565b60606000610d7b610d5784611890565b604051602001610d6791906126c2565b604051602081830303815290604052611a3d565b905060098054905081610d8e9190612d6d565b905060098181548110610dca577f4e487b7100000000000000000000000000000000000000000000000000000000600052603260045260246000fd5b906000526020600020018054610ddf90612cc1565b80601f0160208091040260200160405190810160405280929190818152602001828054610e0b90612cc1565b8015610e585780601f10610e2d57610100808354040283529160200191610e58565b820191906000526020600020905b815481529060010190602001808311610e3b57829003601f168201915b5050505050915050919050565b6000600560008473ffffffffffffffffffffffffffffffffffffffff1673ffffffffffffffffffffffffffffffffffffffff16815260200190815260200160002060008373ffffffffffffffffffffffffffffffffffffffff1673ffffffffffffffffffffffffffffffffffffffff16815260200190815260200160002060009054906101000a900460ff16905092915050565b610f8f81604051602401610f0d91906127cd565b6040516020818303038152906040527f41304fac000000000000000000000000000000000000000000000000000000007bffffffffffffffffffffffffffffffffffffffffffffffffffffffff19166020820180517bffffffffffffffffffffffffffffffffffffffffffffffffffffffff8381831617835250505050611a70565b50565b60007f01ffc9a7000000000000000000000000000000000000000000000000000000007bffffffffffffffffffffffffffffffffffffffffffffffffffffffff1916827bffffffffffffffffffffffffffffffffffffffffffffffffffffffff1916149050919050565b60008073ffffffffffffffffffffffffffffffffffffffff166002600084815260200190815260200160002060009054906101000a900473ffffffffffffffffffffffffffffffffffffffff1673ffffffffffffffffffffffffffffffffffffffff1614159050919050565b600033905090565b816004600083815260200190815260200160002060006101000a81548173ffffffffffffffffffffffffffffffffffffffff021916908373ffffffffffffffffffffffffffffffffffffffff160217905550808273ffffffffffffffffffffffffffffffffffffffff166110e3836106ad565b73ffffffffffffffffffffffffffffffffffffffff167f8c5be1e5ebec7d5bd14f71427d1e84f3dd0314c0f7b2291e5b200ac8c7c3b92560405160405180910390a45050565b600061113482610ffc565b611173576040517f08c379a000000000000000000000000000000000000000000000000000000000815260040161116a906128ad565b60405180910390fd5b600061117e836106ad565b90508073ffffffffffffffffffffffffffffffffffffffff168473ffffffffffffffffffffffffffffffffffffffff1614806111ed57508373ffffffffffffffffffffffffffffffffffffffff166111d584610490565b73ffffffffffffffffffffffffffffffffffffffff16145b806111fe57506111fd8185610e65565b5b91505092915050565b8273ffffffffffffffffffffffffffffffffffffffff16611227826106ad565b73ffffffffffffffffffffffffffffffffffffffff161461127d576040517f08c379a0000000000000000000000000000000000000000000000000000000008152600401611274906129ad565b60405180910390fd5b600073ffffffffffffffffffffffffffffffffffffffff168273ffffffffffffffffffffffffffffffffffffffff1614156112ed576040517f08c379a00000000000000000000000000000000000000000000000000000000081526004016112e49061286d565b60405180910390fd5b6112f8838383611a99565b611303600082611070565b6001600360008573ffffffffffffffffffffffffffffffffffffffff1673ffffffffffffffffffffffffffffffffffffffff16815260200190815260200160002060008282546113539190612bd7565b925050819055506001600360008473ffffffffffffffffffffffffffffffffffffffff1673ffffffffffffffffffffffffffffffffffffffff16815260200190815260200160002060008282546113aa9190612af6565b92505081905550816002600083815260200190815260200160002060006101000a81548173ffffffffffffffffffffffffffffffffffffffff021916908373ffffffffffffffffffffffffffffffffffffffff160217905550808273ffffffffffffffffffffffffffffffffffffffff168473ffffffffffffffffffffffffffffffffffffffff167fddf252ad1be2c89b69c2b068fc378daa952ba7f163c4a11628f55a4df523b3ef60405160405180910390a4505050565b61146e848484611207565b61147a84848484611a9e565b6114b9576040517f08c379a00000000000000000000000000000000000000000000000000000000081526004016114b09061282d565b60405180910390fd5b50505050565b606060405180602001604052806000815250905090565b60606114e182610ffc565b611520576040517f08c379a0000000000000000000000000000000000000000000000000000000008152600401611517906129cd565b60405180910390fd5b600061152a6114bf565b9050600081511161154a5760405180602001604052806000815250611575565b8061155484611890565b60405160200161156592919061266f565b6040516020818303038152906040525b915050919050565b600081600001549050919050565b606060008251905060008114156115b45760405180602001604052806000815250915050611744565b600060036002836115c59190612af6565b6115cf9190612b4c565b60046115db9190612b7d565b905060006020826115ec9190612af6565b67ffffffffffffffff81111561162b577f4e487b7100000000000000000000000000000000000000000000000000000000600052604160045260246000fd5b6040519080825280601f01601f19166020018201604052801561165d5781602001600182028036833780820191505090505b50905060006040518060600160405280604081526020016134ad604091399050600181016020830160005b868110156117015760038101905062ffffff818a015116603f8160121c168401518060081b905060ff603f83600c1c1686015116810190508060081b905060ff603f8360061c1686015116810190508060081b905060ff603f831686015116810190508060e01b90508084526004840193505050611688565b50600386066001811461171b576002811461172b57611736565b613d3d60f01b6002830352611736565b603d60f81b60018303525b508484525050819450505050505b919050565b611763828260405180602001604052806000815250611c35565b5050565b61177082610ffc565b6117af576040517f08c379a00000000000000000000000000000000000000000000000000000000081526004016117a69061292d565b60405180910390fd5b806006600084815260200190815260200160002090805190602001906117d6929190611e71565b505050565b6001816000016000828254019250508190555050565b61188b838383604051602401611809939291906127ef565b6040516020818303038152906040527fe3849f79000000000000000000000000000000000000000000000000000000007bffffffffffffffffffffffffffffffffffffffffffffffffffffffff19166020820180517bffffffffffffffffffffffffffffffffffffffffffffffffffffffff8381831617835250505050611a70565b505050565b606060008214156118d8576040518060400160405280600181526020017f30000000000000000000000000000000000000000000000000000000000000008152509050611a38565b600082905060005b6000821461190a5780806118f390612d24565b915050600a826119039190612b4c565b91506118e0565b60008167ffffffffffffffff81111561194c577f4e487b7100000000000000000000000000000000000000000000000000000000600052604160045260246000fd5b6040519080825280601f01601f19166020018201604052801561197e5781602001600182028036833780820191505090505b5090505b60008514611a31576001826119979190612bd7565b9150600a856119a69190612d6d565b60306119b29190612af6565b60f81b8183815181106119ee577f4e487b7100000000000000000000000000000000000000000000000000000000600052603260045260246000fd5b60200101907effffffffffffffffffffffffffffffffffffffffffffffffffffffffffffff1916908160001a905350600a85611a2a9190612b4c565b9450611982565b8093505050505b919050565b600081604051602001611a509190612658565b6040516020818303038152906040528051906020012060001c9050919050565b60008151905060006a636f6e736f6c652e6c6f679050602083016000808483855afa5050505050565b505050565b6000611abf8473ffffffffffffffffffffffffffffffffffffffff16611c90565b15611c28578373ffffffffffffffffffffffffffffffffffffffff1663150b7a02611ae8611068565b8786866040518563ffffffff1660e01b8152600401611b0a9493929190612766565b602060405180830381600087803b158015611b2457600080fd5b505af1925050508015611b5557506040513d601f19601f82011682018060405250810190611b5291906121b5565b60015b611bd8573d8060008114611b85576040519150601f19603f3d011682016040523d82523d6000602084013e611b8a565b606091505b50600081511415611bd0576040517f08c379a0000000000000000000000000000000000000000000000000000000008152600401611bc79061282d565b60405180910390fd5b805181602001fd5b63150b7a0260e01b7bffffffffffffffffffffffffffffffffffffffffffffffffffffffff1916817bffffffffffffffffffffffffffffffffffffffffffffffffffffffff191614915050611c2d565b600190505b949350505050565b611c3f8383611ca3565b611c4c6000848484611a9e565b611c8b576040517f08c379a0000000000000000000000000000000000000000000000000000000008152600401611c829061282d565b60405180910390fd5b505050565b600080823b905060008111915050919050565b600073ffffffffffffffffffffffffffffffffffffffff168273ffffffffffffffffffffffffffffffffffffffff161415611d13576040517f08c379a0000000000000000000000000000000000000000000000000000000008152600401611d0a9061294d565b60405180910390fd5b611d1c81610ffc565b15611d5c576040517f08c379a0000000000000000000000000000000000000000000000000000000008152600401611d539061284d565b60405180910390fd5b611d6860008383611a99565b6001600360008473ffffffffffffffffffffffffffffffffffffffff1673ffffffffffffffffffffffffffffffffffffffff1681526020019081526020016000206000828254611db89190612af6565b92505081905550816002600083815260200190815260200160002060006101000a81548173ffffffffffffffffffffffffffffffffffffffff021916908373ffffffffffffffffffffffffffffffffffffffff160217905550808273ffffffffffffffffffffffffffffffffffffffff16600073ffffffffffffffffffffffffffffffffffffffff167fddf252ad1be2c89b69c2b068fc378daa952ba7f163c4a11628f55a4df523b3ef60405160405180910390a45050565b828054611e7d90612cc1565b90600052602060002090601f016020900481019282611e9f5760008555611ee6565b82601f10611eb857805160ff1916838001178555611ee6565b82800160010185558215611ee6579182015b82811115611ee5578251825591602001919060010190611eca565b5b509050611ef39190611ef7565b5090565b5b80821115611f10576000816000905550600101611ef8565b5090565b6000611f27611f2284612a6d565b612a48565b905082815260208101848484011115611f3f57600080fd5b611f4a848285612c7f565b509392505050565b600081359050611f618161342b565b92915050565b600081359050611f7681613442565b92915050565b600081359050611f8b81613459565b92915050565b600081519050611fa081613459565b92915050565b600082601f830112611fb757600080fd5b8135611fc7848260208601611f14565b91505092915050565b600081359050611fdf81613470565b92915050565b600060208284031215611ff757600080fd5b600061200584828501611f52565b91505092915050565b6000806040838503121561202157600080fd5b600061202f85828601611f52565b925050602061204085828601611f52565b9150509250929050565b60008060006060848603121561205f57600080fd5b600061206d86828701611f52565b935050602061207e86828701611f52565b925050604061208f86828701611fd0565b9150509250925092565b600080600080608085870312156120af57600080fd5b60006120bd87828801611f52565b94505060206120ce87828801611f52565b93505060406120df87828801611fd0565b925050606085013567ffffffffffffffff8111156120fc57600080fd5b61210887828801611fa6565b91505092959194509250565b6000806040838503121561212757600080fd5b600061213585828601611f52565b925050602061214685828601611f67565b9150509250929050565b6000806040838503121561216357600080fd5b600061217185828601611f52565b925050602061218285828601611fd0565b9150509250929050565b60006020828403121561219e57600080fd5b60006121ac84828501611f7c565b91505092915050565b6000602082840312156121c757600080fd5b60006121d584828501611f91565b91505092915050565b6000602082840312156121f057600080fd5b60006121fe84828501611fd0565b91505092915050565b61221081612c0b565b82525050565b61221f81612c1d565b82525050565b600061223082612ab3565b61223a8185612ac9565b935061224a818560208601612c8e565b61225381612e5a565b840191505092915050565b600061226982612abe565b6122738185612ada565b9350612283818560208601612c8e565b61228c81612e5a565b840191505092915050565b60006122a282612abe565b6122ac8185612aeb565b93506122bc818560208601612c8e565b80840191505092915050565b600081546122d581612cc1565b6122df8186612aeb565b945060018216600081146122fa576001811461230b5761233e565b60ff1983168652818601935061233e565b61231485612a9e565b60005b8381101561233657815481890152600182019150602081019050612317565b838801955050505b50505092915050565b6000612354603283612ada565b915061235f82612e6b565b604082019050919050565b6000612377601c83612ada565b915061238282612eba565b602082019050919050565b600061239a604f83612aeb565b91506123a582612ee3565b604f82019050919050565b60006123bd600683612aeb565b91506123c882612f58565b600682019050919050565b60006123e0602483612ada565b91506123eb82612f81565b604082019050919050565b6000612403601983612ada565b915061240e82612fd0565b602082019050919050565b6000612426602c83612ada565b915061243182612ff9565b604082019050919050565b6000612449600d83612aeb565b915061245482613048565b600d82019050919050565b600061246c603883612ada565b915061247782613071565b604082019050919050565b600061248f602a83612ada565b915061249a826130c0565b604082019050919050565b60006124b2602983612ada565b91506124bd8261310f565b604082019050919050565b60006124d5602e83612ada565b91506124e08261315e565b604082019050919050565b60006124f8600283612aeb565b9150612503826131ad565b600282019050919050565b600061251b602083612ada565b9150612526826131d6565b602082019050919050565b600061253e603183612ada565b9150612549826131ff565b604082019050919050565b6000612561602c83612ada565b915061256c8261324e565b604082019050919050565b6000612584602983612ada565b915061258f8261329d565b604082019050919050565b60006125a7602f83612ada565b91506125b2826132ec565b604082019050919050565b60006125ca600a83612aeb565b91506125d58261333b565b600a82019050919050565b60006125ed602183612ada565b91506125f882613364565b604082019050919050565b6000612610601d83612aeb565b915061261b826133b3565b601d82019050919050565b6000612633603183612ada565b915061263e826133dc565b604082019050919050565b61265281612c75565b82525050565b60006126648284612297565b915081905092915050565b600061267b8285612297565b91506126878284612297565b91508190509392505050565b600061269f82856122c8565b91506126ab8284612297565b91506126b68261243c565b91508190509392505050565b60006126cd826123b0565b91506126d98284612297565b915081905092915050565b60006126ef826125bd565b91506126fb8285612297565b91506127068261238d565b91506127128284612297565b915061271d826124eb565b91508190509392505050565b600061273482612603565b91506127408284612297565b915081905092915050565b60006020820190506127606000830184612207565b92915050565b600060808201905061277b6000830187612207565b6127886020830186612207565b6127956040830185612649565b81810360608301526127a78184612225565b905095945050505050565b60006020820190506127c76000830184612216565b92915050565b600060208201905081810360008301526127e7818461225e565b905092915050565b60006060820190508181036000830152612809818661225e565b90506128186020830185612649565b6128256040830184612207565b949350505050565b6000602082019050818103600083015261284681612347565b9050919050565b600060208201905081810360008301526128668161236a565b9050919050565b60006020820190508181036000830152612886816123d3565b9050919050565b600060208201905081810360008301526128a6816123f6565b9050919050565b600060208201905081810360008301526128c681612419565b9050919050565b600060208201905081810360008301526128e68161245f565b9050919050565b6000602082019050818103600083015261290681612482565b9050919050565b60006020820190508181036000830152612926816124a5565b9050919050565b60006020820190508181036000830152612946816124c8565b9050919050565b600060208201905081810360008301526129668161250e565b9050919050565b6000602082019050818103600083015261298681612531565b9050919050565b600060208201905081810360008301526129a681612554565b9050919050565b600060208201905081810360008301526129c681612577565b9050919050565b600060208201905081810360008301526129e68161259a565b9050919050565b60006020820190508181036000830152612a06816125e0565b9050919050565b60006020820190508181036000830152612a2681612626565b9050919050565b6000602082019050612a426000830184612649565b92915050565b6000612a52612a63565b9050612a5e8282612cf3565b919050565b6000604051905090565b600067ffffffffffffffff821115612a8857612a87612e2b565b5b612a9182612e5a565b9050602081019050919050565b60008190508160005260206000209050919050565b600081519050919050565b600081519050919050565b600082825260208201905092915050565b600082825260208201905092915050565b600081905092915050565b6000612b0182612c75565b9150612b0c83612c75565b9250827fffffffffffffffffffffffffffffffffffffffffffffffffffffffffffffffff03821115612b4157612b40612d9e565b5b828201905092915050565b6000612b5782612c75565b9150612b6283612c75565b925082612b7257612b71612dcd565b5b828204905092915050565b6000612b8882612c75565b9150612b9383612c75565b9250817fffffffffffffffffffffffffffffffffffffffffffffffffffffffffffffffff0483118215151615612bcc57612bcb612d9e565b5b828202905092915050565b6000612be282612c75565b9150612bed83612c75565b925082821015612c0057612bff612d9e565b5b828203905092915050565b6000612c1682612c55565b9050919050565b60008115159050919050565b60007fffffffff0000000000000000000000000000000000000000000000000000000082169050919050565b600073ffffffffffffffffffffffffffffffffffffffff82169050919050565b6000819050919050565b82818337600083830152505050565b60005b83811015612cac578082015181840152602081019050612c91565b83811115612cbb576000848401525b50505050565b60006002820490506001821680612cd957607f821691505b60208210811415612ced57612cec612dfc565b5b50919050565b612cfc82612e5a565b810181811067ffffffffffffffff82111715612d1b57612d1a612e2b565b5b80604052505050565b6000612d2f82612c75565b91507fffffffffffffffffffffffffffffffffffffffffffffffffffffffffffffffff821415612d6257612d61612d9e565b5b600182019050919050565b6000612d7882612c75565b9150612d8383612c75565b925082612d9357612d92612dcd565b5b828206905092915050565b7f4e487b7100000000000000000000000000000000000000000000000000000000600052601160045260246000fd5b7f4e487b7100000000000000000000000000000000000000000000000000000000600052601260045260246000fd5b7f4e487b7100000000000000000000000000000000000000000000000000000000600052602260045260246000fd5b7f4e487b7100000000000000000000000000000000000000000000000000000000600052604160045260246000fd5b6000601f19601f8301169050919050565b7f4552433732313a207472616e7366657220746f206e6f6e20455243373231526560008201527f63656976657220696d706c656d656e7465720000000000000000000000000000602082015250565b7f4552433732313a20746f6b656e20616c7265616479206d696e74656400000000600082015250565b7f222c20226465736372697074696f6e223a2022596f75722076657279206f776e60008201527f2056616c6461782e222c2022696d616765223a2022646174613a696d6167652f60208201527f7376672b786d6c3b6261736536342c0000000000000000000000000000000000604082015250565b7f76616c6461780000000000000000000000000000000000000000000000000000600082015250565b7f4552433732313a207472616e7366657220746f20746865207a65726f2061646460008201527f7265737300000000000000000000000000000000000000000000000000000000602082015250565b7f4552433732313a20617070726f766520746f2063616c6c657200000000000000600082015250565b7f4552433732313a206f70657261746f7220717565727920666f72206e6f6e657860008201527f697374656e7420746f6b656e0000000000000000000000000000000000000000602082015250565b7f3c2f746578743e3c2f7376673e00000000000000000000000000000000000000600082015250565b7f4552433732313a20617070726f76652063616c6c6572206973206e6f74206f7760008201527f6e6572206e6f7220617070726f76656420666f7220616c6c0000000000000000602082015250565b7f4552433732313a2062616c616e636520717565727920666f7220746865207a6560008201527f726f206164647265737300000000000000000000000000000000000000000000602082015250565b7f4552433732313a206f776e657220717565727920666f72206e6f6e657869737460008201527f656e7420746f6b656e0000000000000000000000000000000000000000000000602082015250565b7f45524337323155524953746f726167653a2055524920736574206f66206e6f6e60008201527f6578697374656e7420746f6b656e000000000000000000000000000000000000602082015250565b7f227d000000000000000000000000000000000000000000000000000000000000600082015250565b7f4552433732313a206d696e7420746f20746865207a65726f2061646472657373600082015250565b7f45524337323155524953746f726167653a2055524920717565727920666f722060008201527f6e6f6e6578697374656e7420746f6b656e000000000000000000000000000000602082015250565b7f4552433732313a20617070726f76656420717565727920666f72206e6f6e657860008201527f697374656e7420746f6b656e0000000000000000000000000000000000000000602082015250565b7f4552433732313a207472616e73666572206f6620746f6b656e2074686174206960008201527f73206e6f74206f776e0000000000000000000000000000000000000000000000602082015250565b7f4552433732314d657461646174613a2055524920717565727920666f72206e6f60008201527f6e6578697374656e7420746f6b656e0000000000000000000000000000000000602082015250565b7f7b226e616d65223a202200000000000000000000000000000000000000000000600082015250565b7f4552433732313a20617070726f76616c20746f2063757272656e74206f776e6560008201527f7200000000000000000000000000000000000000000000000000000000000000602082015250565b7f646174613a6170706c69636174696f6e2f6a736f6e3b6261736536342c000000600082015250565b7f4552433732313a207472616e736665722063616c6c6572206973206e6f74206f60008201527f776e6572206e6f7220617070726f766564000000000000000000000000000000602082015250565b61343481612c0b565b811461343f57600080fd5b50565b61344b81612c1d565b811461345657600080fd5b50565b61346281612c29565b811461346d57600080fd5b50565b61347981612c75565b811461348457600080fd5b5056fe416e204e465420772f20494420257320686173206265656e206d696e74656420746f2025734142434445464748494a4b4c4d4e4f505152535455565758595a6162636465666768696a6b6c6d6e6f707172737475767778797a303132333435363738392b2fa26469706673582212209e0a51a438546e8e56f7861280c272b06a42c0614a5efd159f736179f6b0b9b564736f6c634300080400333c73766720786d6c6e733d27687474703a2f2f7777772e77332e6f72672f323030302f73766727207072657365727665417370656374526174696f3d27784d696e594d696e206d656574272076696577426f783d273020302033353020333530273e3c7374796c653e2e62617365207b2066696c6c3a2077686974653b20666f6e742d66616d696c793a2073657269663b20666f6e742d73697a653a20323470783b207d3c2f7374796c653e3c726563742077696474683d273130302527206865696768743d2731303025272066696c6c3d27626c61636b27202f3e3c7465787420783d273530252720793d273530252720636c6173733d27626173652720646f6d696e616e742d626173656c696e653d276d6964646c652720746578742d616e63686f723d276d6964646c65273e",
  "linkReferences": {},
  "deployedLinkReferences": {}
}